{
  "contractName": "YourCollectible",
  "abi": [
    {
      "inputs": [
        {
          "internalType": "address",
          "name": "_trustedForwarder",
          "type": "address"
        }
      ],
      "stateMutability": "nonpayable",
      "type": "constructor"
    },
    {
      "anonymous": false,
      "inputs": [
        {
          "indexed": true,
          "internalType": "address",
          "name": "owner",
          "type": "address"
        },
        {
          "indexed": true,
          "internalType": "address",
          "name": "approved",
          "type": "address"
        },
        {
          "indexed": true,
          "internalType": "uint256",
          "name": "tokenId",
          "type": "uint256"
        }
      ],
      "name": "Approval",
      "type": "event"
    },
    {
      "anonymous": false,
      "inputs": [
        {
          "indexed": true,
          "internalType": "address",
          "name": "owner",
          "type": "address"
        },
        {
          "indexed": true,
          "internalType": "address",
          "name": "operator",
          "type": "address"
        },
        {
          "indexed": false,
          "internalType": "bool",
          "name": "approved",
          "type": "bool"
        }
      ],
      "name": "ApprovalForAll",
      "type": "event"
    },
    {
      "anonymous": false,
      "inputs": [
        {
          "indexed": true,
          "internalType": "address",
          "name": "who",
          "type": "address"
        },
        {
          "indexed": false,
          "internalType": "uint256",
          "name": "tokenId",
          "type": "uint256"
        }
      ],
      "name": "Minted",
      "type": "event"
    },
    {
      "anonymous": false,
      "inputs": [
        {
          "indexed": true,
          "internalType": "address",
          "name": "previousOwner",
          "type": "address"
        },
        {
          "indexed": true,
          "internalType": "address",
          "name": "newOwner",
          "type": "address"
        }
      ],
      "name": "OwnershipTransferred",
      "type": "event"
    },
    {
      "anonymous": false,
      "inputs": [
        {
          "indexed": true,
          "internalType": "address",
          "name": "from",
          "type": "address"
        },
        {
          "indexed": true,
          "internalType": "address",
          "name": "to",
          "type": "address"
        },
        {
          "indexed": true,
          "internalType": "uint256",
          "name": "tokenId",
          "type": "uint256"
        }
      ],
      "name": "Transfer",
      "type": "event"
    },
    {
      "inputs": [],
      "name": "MAX_ENTRIES",
      "outputs": [
        {
          "internalType": "uint256",
          "name": "",
          "type": "uint256"
        }
      ],
      "stateMutability": "view",
      "type": "function",
      "constant": true
    },
    {
      "inputs": [
        {
          "internalType": "address",
          "name": "to",
          "type": "address"
        },
        {
          "internalType": "uint256",
          "name": "tokenId",
          "type": "uint256"
        }
      ],
      "name": "approve",
      "outputs": [],
      "stateMutability": "nonpayable",
      "type": "function"
    },
    {
      "inputs": [
        {
          "internalType": "address",
          "name": "owner",
          "type": "address"
        }
      ],
      "name": "balanceOf",
      "outputs": [
        {
          "internalType": "uint256",
          "name": "",
          "type": "uint256"
        }
      ],
      "stateMutability": "view",
      "type": "function",
      "constant": true
    },
    {
      "inputs": [
        {
          "internalType": "address",
          "name": "",
          "type": "address"
        }
      ],
      "name": "buysPerAddress",
      "outputs": [
        {
          "internalType": "uint256",
          "name": "",
          "type": "uint256"
        }
      ],
      "stateMutability": "view",
      "type": "function",
      "constant": true
    },
    {
      "inputs": [
        {
          "internalType": "uint256",
          "name": "tokenId",
          "type": "uint256"
        }
      ],
      "name": "getApproved",
      "outputs": [
        {
          "internalType": "address",
          "name": "",
          "type": "address"
        }
      ],
      "stateMutability": "view",
      "type": "function",
      "constant": true
    },
    {
      "inputs": [
        {
          "internalType": "address",
          "name": "owner",
          "type": "address"
        },
        {
          "internalType": "address",
          "name": "operator",
          "type": "address"
        }
      ],
      "name": "isApprovedForAll",
      "outputs": [
        {
          "internalType": "bool",
          "name": "",
          "type": "bool"
        }
      ],
      "stateMutability": "view",
      "type": "function",
      "constant": true
    },
    {
      "inputs": [
        {
          "internalType": "address",
          "name": "forwarder",
          "type": "address"
        }
      ],
      "name": "isTrustedForwarder",
      "outputs": [
        {
          "internalType": "bool",
          "name": "",
          "type": "bool"
        }
      ],
      "stateMutability": "view",
      "type": "function",
      "constant": true
    },
    {
      "inputs": [],
      "name": "maxBuysPerAddress",
      "outputs": [
        {
          "internalType": "uint256",
          "name": "",
          "type": "uint256"
        }
      ],
      "stateMutability": "view",
      "type": "function",
      "constant": true
    },
    {
      "inputs": [],
      "name": "maxMint",
      "outputs": [
        {
          "internalType": "uint256",
          "name": "",
          "type": "uint256"
        }
      ],
      "stateMutability": "view",
      "type": "function",
      "constant": true
    },
    {
      "inputs": [],
      "name": "maxPrebuysPerAddress",
      "outputs": [
        {
          "internalType": "uint256",
          "name": "",
          "type": "uint256"
        }
      ],
      "stateMutability": "view",
      "type": "function",
      "constant": true
    },
    {
      "inputs": [],
      "name": "maxPresaleMint",
      "outputs": [
        {
          "internalType": "uint256",
          "name": "",
          "type": "uint256"
        }
      ],
      "stateMutability": "view",
      "type": "function",
      "constant": true
    },
    {
      "inputs": [],
      "name": "maxTotalPresale",
      "outputs": [
        {
          "internalType": "uint256",
          "name": "",
          "type": "uint256"
        }
      ],
      "stateMutability": "view",
      "type": "function",
      "constant": true
    },
    {
      "inputs": [],
      "name": "name",
      "outputs": [
        {
          "internalType": "string",
          "name": "",
          "type": "string"
        }
      ],
      "stateMutability": "view",
      "type": "function",
      "constant": true
    },
    {
      "inputs": [],
      "name": "ogPrice",
      "outputs": [
        {
          "internalType": "uint256",
          "name": "",
          "type": "uint256"
        }
      ],
      "stateMutability": "view",
      "type": "function",
      "constant": true
    },
    {
      "inputs": [],
      "name": "owner",
      "outputs": [
        {
          "internalType": "address",
          "name": "",
          "type": "address"
        }
      ],
      "stateMutability": "view",
      "type": "function",
      "constant": true
    },
    {
      "inputs": [
        {
          "internalType": "uint256",
          "name": "tokenId",
          "type": "uint256"
        }
      ],
      "name": "ownerOf",
      "outputs": [
        {
          "internalType": "address",
          "name": "",
          "type": "address"
        }
      ],
      "stateMutability": "view",
      "type": "function",
      "constant": true
    },
    {
      "inputs": [
        {
          "internalType": "address",
          "name": "",
          "type": "address"
        }
      ],
      "name": "prebuysPerAddress",
      "outputs": [
        {
          "internalType": "uint256",
          "name": "",
          "type": "uint256"
        }
      ],
      "stateMutability": "view",
      "type": "function",
      "constant": true
    },
    {
      "inputs": [],
      "name": "presalePaused",
      "outputs": [
        {
          "internalType": "bool",
          "name": "",
          "type": "bool"
        }
      ],
      "stateMutability": "view",
      "type": "function",
      "constant": true
    },
    {
      "inputs": [],
      "name": "price",
      "outputs": [
        {
          "internalType": "uint256",
          "name": "",
          "type": "uint256"
        }
      ],
      "stateMutability": "view",
      "type": "function",
      "constant": true
    },
    {
      "inputs": [],
      "name": "renounceOwnership",
      "outputs": [],
      "stateMutability": "nonpayable",
      "type": "function"
    },
    {
      "inputs": [
        {
          "internalType": "address",
          "name": "from",
          "type": "address"
        },
        {
          "internalType": "address",
          "name": "to",
          "type": "address"
        },
        {
          "internalType": "uint256",
          "name": "tokenId",
          "type": "uint256"
        }
      ],
      "name": "safeTransferFrom",
      "outputs": [],
      "stateMutability": "nonpayable",
      "type": "function"
    },
    {
      "inputs": [
        {
          "internalType": "address",
          "name": "from",
          "type": "address"
        },
        {
          "internalType": "address",
          "name": "to",
          "type": "address"
        },
        {
          "internalType": "uint256",
          "name": "tokenId",
          "type": "uint256"
        },
        {
          "internalType": "bytes",
          "name": "_data",
          "type": "bytes"
        }
      ],
      "name": "safeTransferFrom",
      "outputs": [],
      "stateMutability": "nonpayable",
      "type": "function"
    },
    {
      "inputs": [],
      "name": "salePaused",
      "outputs": [
        {
          "internalType": "bool",
          "name": "",
          "type": "bool"
        }
      ],
      "stateMutability": "view",
      "type": "function",
      "constant": true
    },
    {
      "inputs": [
        {
          "internalType": "address",
          "name": "operator",
          "type": "address"
        },
        {
          "internalType": "bool",
          "name": "approved",
          "type": "bool"
        }
      ],
      "name": "setApprovalForAll",
      "outputs": [],
      "stateMutability": "nonpayable",
      "type": "function"
    },
    {
      "inputs": [],
      "name": "symbol",
      "outputs": [
        {
          "internalType": "string",
          "name": "",
          "type": "string"
        }
      ],
      "stateMutability": "view",
      "type": "function",
      "constant": true
    },
    {
      "inputs": [
        {
          "internalType": "uint256",
          "name": "index",
          "type": "uint256"
        }
      ],
      "name": "tokenByIndex",
      "outputs": [
        {
          "internalType": "uint256",
          "name": "",
          "type": "uint256"
        }
      ],
      "stateMutability": "view",
      "type": "function",
      "constant": true
    },
    {
      "inputs": [
        {
          "internalType": "address",
          "name": "owner",
          "type": "address"
        },
        {
          "internalType": "uint256",
          "name": "index",
          "type": "uint256"
        }
      ],
      "name": "tokenOfOwnerByIndex",
      "outputs": [
        {
          "internalType": "uint256",
          "name": "",
          "type": "uint256"
        }
      ],
      "stateMutability": "view",
      "type": "function",
      "constant": true
    },
    {
      "inputs": [
        {
          "internalType": "uint256",
          "name": "tokenId",
          "type": "uint256"
        }
      ],
      "name": "tokenURI",
      "outputs": [
        {
          "internalType": "string",
          "name": "",
          "type": "string"
        }
      ],
      "stateMutability": "view",
      "type": "function",
      "constant": true
    },
    {
      "inputs": [],
      "name": "totalSupply",
      "outputs": [
        {
          "internalType": "uint256",
          "name": "",
          "type": "uint256"
        }
      ],
      "stateMutability": "view",
      "type": "function",
      "constant": true
    },
    {
      "inputs": [
        {
          "internalType": "address",
          "name": "from",
          "type": "address"
        },
        {
          "internalType": "address",
          "name": "to",
          "type": "address"
        },
        {
          "internalType": "uint256",
          "name": "tokenId",
          "type": "uint256"
        }
      ],
      "name": "transferFrom",
      "outputs": [],
      "stateMutability": "nonpayable",
      "type": "function"
    },
    {
      "inputs": [
        {
          "internalType": "address",
          "name": "newOwner",
          "type": "address"
        }
      ],
      "name": "transferOwnership",
      "outputs": [],
      "stateMutability": "nonpayable",
      "type": "function"
    },
    {
      "inputs": [],
      "name": "trustedForwarder",
      "outputs": [
        {
          "internalType": "address",
          "name": "",
          "type": "address"
        }
      ],
      "stateMutability": "view",
      "type": "function",
      "constant": true
    },
    {
      "inputs": [
        {
          "internalType": "address",
          "name": "to",
          "type": "address"
        }
      ],
      "name": "mint",
      "outputs": [],
      "stateMutability": "nonpayable",
      "type": "function"
    },
    {
      "inputs": [
        {
          "internalType": "address",
          "name": "_trustedForwarder",
          "type": "address"
        }
      ],
      "name": "setTrustForwarder",
      "outputs": [],
      "stateMutability": "nonpayable",
      "type": "function"
    },
    {
      "inputs": [],
      "name": "versionRecipient",
      "outputs": [
        {
          "internalType": "string",
          "name": "",
          "type": "string"
        }
      ],
      "stateMutability": "pure",
      "type": "function",
      "constant": true
    },
    {
      "inputs": [
        {
          "internalType": "uint256",
          "name": "_num",
          "type": "uint256"
        }
      ],
      "name": "seedPromoToOwner",
      "outputs": [],
      "stateMutability": "nonpayable",
      "type": "function"
    },
    {
      "inputs": [
        {
          "internalType": "address",
          "name": "_to",
          "type": "address"
        },
        {
          "internalType": "uint256",
          "name": "_num",
          "type": "uint256"
        }
      ],
      "name": "seedPromo",
      "outputs": [],
      "stateMutability": "nonpayable",
      "type": "function"
    },
    {
      "inputs": [
        {
          "internalType": "uint256",
          "name": "_num",
          "type": "uint256"
        }
      ],
      "name": "buy",
      "outputs": [],
      "stateMutability": "payable",
      "type": "function",
      "payable": true
    },
    {
      "inputs": [
        {
          "internalType": "uint256",
          "name": "_num",
          "type": "uint256"
        }
      ],
      "name": "presale",
      "outputs": [],
      "stateMutability": "payable",
      "type": "function",
      "payable": true
    },
    {
      "inputs": [
        {
          "internalType": "bool",
          "name": "val",
          "type": "bool"
        }
      ],
      "name": "setSalePauseStatus",
      "outputs": [],
      "stateMutability": "nonpayable",
      "type": "function"
    },
    {
      "inputs": [
        {
          "internalType": "bool",
          "name": "val",
          "type": "bool"
        }
      ],
      "name": "setPresalePauseStatus",
      "outputs": [],
      "stateMutability": "nonpayable",
      "type": "function"
    },
    {
      "inputs": [
        {
          "internalType": "uint256",
          "name": "val",
          "type": "uint256"
        }
      ],
      "name": "setMaxPresale",
      "outputs": [],
      "stateMutability": "nonpayable",
      "type": "function"
    },
    {
      "inputs": [
        {
          "internalType": "uint256",
          "name": "val",
          "type": "uint256"
        }
      ],
      "name": "setMaxMint",
      "outputs": [],
      "stateMutability": "nonpayable",
      "type": "function"
    },
    {
      "inputs": [
        {
          "internalType": "uint256",
          "name": "val",
          "type": "uint256"
        }
      ],
      "name": "setMaxPrebuysPerAddress",
      "outputs": [],
      "stateMutability": "nonpayable",
      "type": "function"
    },
    {
      "inputs": [
        {
          "internalType": "address",
          "name": "_to",
          "type": "address"
        }
      ],
      "name": "whitelistEligible",
      "outputs": [
        {
          "internalType": "bool",
          "name": "",
          "type": "bool"
        }
      ],
      "stateMutability": "view",
      "type": "function",
      "constant": true
    },
    {
      "inputs": [
        {
          "internalType": "address",
          "name": "_to",
          "type": "address"
        }
      ],
      "name": "ogEligible",
      "outputs": [
        {
          "internalType": "bool",
          "name": "",
          "type": "bool"
        }
      ],
      "stateMutability": "view",
      "type": "function",
      "constant": true
    },
    {
      "inputs": [],
      "name": "withdrawAll",
      "outputs": [],
      "stateMutability": "nonpayable",
      "type": "function"
    },
    {
      "inputs": [
        {
          "internalType": "address[]",
          "name": "entries",
          "type": "address[]"
        },
        {
          "internalType": "bool",
          "name": "isOG",
          "type": "bool"
        }
      ],
      "name": "addToPresale",
      "outputs": [],
      "stateMutability": "nonpayable",
      "type": "function"
    },
    {
      "inputs": [
        {
          "internalType": "bytes4",
          "name": "interfaceId",
          "type": "bytes4"
        }
      ],
      "name": "supportsInterface",
      "outputs": [
        {
          "internalType": "bool",
          "name": "",
          "type": "bool"
        }
      ],
      "stateMutability": "view",
      "type": "function",
      "constant": true
    }
  ],
  "bytecode": "0x6005600d819055600e81905566c3663566a58000600f5566a616e0973fe0006010556011805461ffff19166101011790556113886012556013556014805560a060408190526000608081905262000059916015916200025c565b503480156200006757600080fd5b5060405162002fd238038062002fd28339810160408190526200008a9162000302565b6040805180820182526009815268417263616469616e7360b81b60208083019182528351808501909452600384526241524360e81b908401528151919291620000d6916000916200025c565b508051620000ec9060019060208401906200025c565b5050506200010962000103620001af60201b60201c565b620001cb565b600b80546001600160a01b0319166001600160a01b0383161790556200013b600c6200021d60201b62001a311760201c565b6040805180820190915260198082527f68747470733a2f2f6170692e617263616469616e732e696f2f00000000000000602090920191825262000181916015916200025c565b5050601680546001600160a01b031916731e55c85801a2c4f0bec57c84742a8ef3d72de57b17905562000371565b6000620001c66200022660201b62001a3a1760201c565b905090565b600680546001600160a01b038381166001600160a01b0319831681179093556040519116919082907f8be0079c531659141344cd1fd0a4f28419497f9722a3daafe3b4186f6b6457e090600090a35050565b80546001019055565b600060143610801590620002445750600b546001600160a01b031633145b1562000257575060131936013560601c90565b503390565b8280546200026a9062000334565b90600052602060002090601f0160209004810192826200028e5760008555620002d9565b82601f10620002a957805160ff1916838001178555620002d9565b82800160010185558215620002d9579182015b82811115620002d9578251825591602001919060010190620002bc565b50620002e7929150620002eb565b5090565b5b80821115620002e75760008155600101620002ec565b6000602082840312156200031557600080fd5b81516001600160a01b03811681146200032d57600080fd5b9392505050565b600181811c908216806200034957607f821691505b602082108114156200036b57634e487b7160e01b600052602260045260246000fd5b50919050565b612c5180620003816000396000f3fe6080604052600436106102ae5760003560e01c80637d4cb96411610175578063b88d4fde116100dc578063ddf0b3da11610095578063e985e9c51161006f578063e985e9c514610847578063ead6890a14610890578063f2fde38b146108a6578063ffb018b2146108c657600080fd5b8063ddf0b3da146107f4578063e34b3aee14610814578063e6ab14341461083457600080fd5b8063b88d4fde1461071b578063be9c080a1461073b578063c87b56dd14610774578063cb28736d14610794578063d96a094a146107b4578063dc129f32146107c757600080fd5b80639a510ba61161012e5780639a510ba614610663578063a035b1fe14610690578063a22cb465146106a6578063a79fdbb4146106c6578063b34b3102146106e5578063b45762781461070557600080fd5b80637d4cb964146105d15780637da0a877146105e7578063853828b6146106055780638da5cb5b1461061a57806395d89b411461063857806399652e351461064d57600080fd5b806342842e0e116102195780636352211e116101d25780636352211e146105265780636a6278421461054657806370a0823114610566578063715018a614610586578063735ffc091461059b5780637501f741146105bb57600080fd5b806342842e0e14610453578063486ff0cd146104735780634f6ccce71461049d578063547520fe146104bd578063572b6c05146104dd5780635d08c1ae1461050c57600080fd5b806318160ddd1161026b57806318160ddd146103a85780631bbc1afa146103bd57806323b872dd146103dd5780632f745c59146103fd57806338f736b91461041d5780633f4b3ebc1461043d57600080fd5b806301ffc9a7146102b357806306fdde03146102e85780630736eaa41461030a578063081812fc1461032c578063095ea7b31461036457806315f5d8a014610384575b600080fd5b3480156102bf57600080fd5b506102d36102ce36600461260c565b6108e6565b60405190151581526020015b60405180910390f35b3480156102f457600080fd5b506102fd6108f7565b6040516102df9190612681565b34801561031657600080fd5b5061032a6103253660046126a9565b610989565b005b34801561033857600080fd5b5061034c61034736600461272d565b610ac1565b6040516001600160a01b0390911681526020016102df565b34801561037057600080fd5b5061032a61037f36600461275d565b610b56565b34801561039057600080fd5b5061039a60105481565b6040519081526020016102df565b3480156103b457600080fd5b5060095461039a565b3480156103c957600080fd5b5061032a6103d836600461272d565b610c7e565b3480156103e957600080fd5b5061032a6103f8366004612787565b610ccc565b34801561040957600080fd5b5061039a61041836600461275d565b610d04565b34801561042957600080fd5b5061032a6104383660046127c3565b610d9a565b34801561044957600080fd5b5061039a60145481565b34801561045f57600080fd5b5061032a61046e366004612787565b610df6565b34801561047f57600080fd5b506040805180820190915260018152603160f81b60208201526102fd565b3480156104a957600080fd5b5061039a6104b836600461272d565b610e11565b3480156104c957600080fd5b5061032a6104d836600461272d565b610ea4565b3480156104e957600080fd5b506102d36104f83660046127de565b600b546001600160a01b0391821691161490565b34801561051857600080fd5b506011546102d39060ff1681565b34801561053257600080fd5b5061034c61054136600461272d565b610ef2565b34801561055257600080fd5b5061032a6105613660046127de565b610f69565b34801561057257600080fd5b5061039a6105813660046127de565b61102e565b34801561059257600080fd5b5061032a6110b5565b3480156105a757600080fd5b5061032a6105b636600461275d565b61110a565b3480156105c757600080fd5b5061039a600d5481565b3480156105dd57600080fd5b5061039a61271081565b3480156105f357600080fd5b50600b546001600160a01b031661034c565b34801561061157600080fd5b5061032a611161565b34801561062657600080fd5b506006546001600160a01b031661034c565b34801561064457600080fd5b506102fd6111db565b34801561065957600080fd5b5061039a60125481565b34801561066f57600080fd5b5061039a61067e3660046127de565b601a6020526000908152604090205481565b34801561069c57600080fd5b5061039a600f5481565b3480156106b257600080fd5b5061032a6106c13660046127f9565b6111ea565b3480156106d257600080fd5b506011546102d390610100900460ff1681565b3480156106f157600080fd5b506102d36107003660046127de565b6111fc565b34801561071157600080fd5b5061039a600e5481565b34801561072757600080fd5b5061032a610736366004612842565b61123d565b34801561074757600080fd5b506102d36107563660046127de565b6001600160a01b031660009081526017602052604090205460ff1690565b34801561078057600080fd5b506102fd61078f36600461272d565b611276565b3480156107a057600080fd5b5061032a6107af3660046127c3565b611351565b61032a6107c236600461272d565b6113b4565b3480156107d357600080fd5b5061039a6107e23660046127de565b60196020526000908152604090205481565b34801561080057600080fd5b5061032a61080f3660046127de565b611561565b34801561082057600080fd5b5061032a61082f36600461272d565b6115c8565b61032a61084236600461272d565b611627565b34801561085357600080fd5b506102d361086236600461291e565b6001600160a01b03918216600090815260056020908152604080832093909416825291909152205460ff1690565b34801561089c57600080fd5b5061039a60135481565b3480156108b257600080fd5b5061032a6108c13660046127de565b61192c565b3480156108d257600080fd5b5061032a6108e136600461272d565b6119e3565b60006108f182611a6e565b92915050565b60606000805461090690612948565b80601f016020809104026020016040519081016040528092919081815260200182805461093290612948565b801561097f5780601f106109545761010080835404028352916020019161097f565b820191906000526020600020905b81548152906001019060200180831161096257829003601f168201915b5050505050905090565b610991611a93565b6001600160a01b03166109ac6006546001600160a01b031690565b6001600160a01b0316146109db5760405162461bcd60e51b81526004016109d290612983565b60405180910390fd5b60005b82811015610abb5760008484838181106109fa576109fa6129b8565b9050602002016020810190610a0f91906127de565b90506001600160a01b038116610a565760405162461bcd60e51b815260206004820152600c60248201526b4e554c4c5f4144445245535360a01b60448201526064016109d2565b8215610a84576001600160a01b0381166000908152601760205260409020805460ff19166001179055610aa8565b6001600160a01b0381166000908152601860205260409020805460ff191660011790555b5080610ab3816129e4565b9150506109de565b50505050565b6000818152600260205260408120546001600160a01b0316610b3a5760405162461bcd60e51b815260206004820152602c60248201527f4552433732313a20617070726f76656420717565727920666f72206e6f6e657860448201526b34b9ba32b73a103a37b5b2b760a11b60648201526084016109d2565b506000908152600460205260409020546001600160a01b031690565b6000610b6182610ef2565b9050806001600160a01b0316836001600160a01b03161415610bcf5760405162461bcd60e51b815260206004820152602160248201527f4552433732313a20617070726f76616c20746f2063757272656e74206f776e656044820152603960f91b60648201526084016109d2565b806001600160a01b0316610be1611a93565b6001600160a01b03161480610bfd5750610bfd81610862611a93565b610c6f5760405162461bcd60e51b815260206004820152603860248201527f4552433732313a20617070726f76652063616c6c6572206973206e6f74206f7760448201527f6e6572206e6f7220617070726f76656420666f7220616c6c000000000000000060648201526084016109d2565b610c798383611aa2565b505050565b610c86611a93565b6001600160a01b0316610ca16006546001600160a01b031690565b6001600160a01b031614610cc75760405162461bcd60e51b81526004016109d290612983565b601255565b610cdd610cd7611a93565b82611b10565b610cf95760405162461bcd60e51b81526004016109d2906129ff565b610c79838383611c07565b6000610d0f8361102e565b8210610d715760405162461bcd60e51b815260206004820152602b60248201527f455243373231456e756d657261626c653a206f776e657220696e646578206f7560448201526a74206f6620626f756e647360a81b60648201526084016109d2565b506001600160a01b03919091166000908152600760209081526040808320938352929052205490565b610da2611a93565b6001600160a01b0316610dbd6006546001600160a01b031690565b6001600160a01b031614610de35760405162461bcd60e51b81526004016109d290612983565b6011805460ff1916911515919091179055565b610c798383836040518060200160405280600081525061123d565b6000610e1c60095490565b8210610e7f5760405162461bcd60e51b815260206004820152602c60248201527f455243373231456e756d657261626c653a20676c6f62616c20696e646578206f60448201526b7574206f6620626f756e647360a01b60648201526084016109d2565b60098281548110610e9257610e926129b8565b90600052602060002001549050919050565b610eac611a93565b6001600160a01b0316610ec76006546001600160a01b031690565b6001600160a01b031614610eed5760405162461bcd60e51b81526004016109d290612983565b600d55565b6000818152600260205260408120546001600160a01b0316806108f15760405162461bcd60e51b815260206004820152602960248201527f4552433732313a206f776e657220717565727920666f72206e6f6e657869737460448201526832b73a103a37b5b2b760b91b60648201526084016109d2565b612710610f75600c5490565b610f80906001612a50565b10610fc65760405162461bcd60e51b815260206004820152601660248201527545786365656473206d6178696d756d20737570706c7960501b60448201526064016109d2565b610fd881610fd3600c5490565b611dae565b806001600160a01b03167f30385c845b448a36257a6a1716e6ad2e1bc2cbe333cde1e69fe849ad6511adfe61100c600c5490565b60405190815260200160405180910390a261102b600c80546001019055565b50565b60006001600160a01b0382166110995760405162461bcd60e51b815260206004820152602a60248201527f4552433732313a2062616c616e636520717565727920666f7220746865207a65604482015269726f206164647265737360b01b60648201526084016109d2565b506001600160a01b031660009081526003602052604090205490565b6110bd611a93565b6001600160a01b03166110d86006546001600160a01b031690565b6001600160a01b0316146110fe5760405162461bcd60e51b81526004016109d290612983565b6111086000611dc8565b565b611112611a93565b6001600160a01b031661112d6006546001600160a01b031690565b6001600160a01b0316146111535760405162461bcd60e51b81526004016109d290612983565b61115d8282611e1a565b5050565b611169611a93565b6001600160a01b03166111846006546001600160a01b031690565b6001600160a01b0316146111aa5760405162461bcd60e51b81526004016109d290612983565b6006546040516001600160a01b03909116904780156108fc02916000818181858888f1935050505061110857600080fd5b60606001805461090690612948565b61115d6111f5611a93565b8383611eaf565b6001600160a01b03811660009081526017602052604081205460ff16806108f15750506001600160a01b031660009081526018602052604090205460ff1690565b61124e611248611a93565b83611b10565b61126a5760405162461bcd60e51b81526004016109d2906129ff565b610abb84848484611f7e565b6000818152600260205260409020546060906001600160a01b03166112f55760405162461bcd60e51b815260206004820152602f60248201527f4552433732314d657461646174613a2055524920717565727920666f72206e6f60448201526e3732bc34b9ba32b73a103a37b5b2b760891b60648201526084016109d2565b60006112ff611fb1565b9050600081511161131f576040518060200160405280600081525061134a565b8061132984611fc0565b60405160200161133a929190612a68565b6040516020818303038152906040525b9392505050565b611359611a93565b6001600160a01b03166113746006546001600160a01b031690565b6001600160a01b03161461139a5760405162461bcd60e51b81526004016109d290612983565b601180549115156101000261ff0019909216919091179055565b60115460ff16156113fd5760405162461bcd60e51b815260206004820152601360248201527214d85b19481a185cdb89dd081cdd185c9d1959606a1b60448201526064016109d2565b600d5461140b906001612a50565b81106114295760405162461bcd60e51b81526004016109d290612a97565b80600f546114379190612ae5565b34146114855760405162461bcd60e51b815260206004820181905260248201527f457468657220616d6f756e742073656e74206973206e6f7420636f727265637460448201526064016109d2565b60145481601a6000611495611a93565b6001600160a01b03166001600160a01b03168152602001908152602001600020546114c09190612a50565b111561150e5760405162461bcd60e51b815260206004820152601c60248201527f4d6178206275797320666f72206164647265737320726561636865640000000060448201526064016109d2565b80601a600061151b611a93565b6001600160a01b03166001600160a01b03168152602001908152602001600020600082825461154a9190612a50565b9091555061102b905061155b611a93565b82611e1a565b611569611a93565b6001600160a01b03166115846006546001600160a01b031690565b6001600160a01b0316146115aa5760405162461bcd60e51b81526004016109d290612983565b600b80546001600160a01b0319166001600160a01b03831617905550565b6115d0611a93565b6001600160a01b03166115eb6006546001600160a01b031690565b6001600160a01b0316146116115760405162461bcd60e51b81526004016109d290612983565b60165461102b906001600160a01b031682611e1a565b601154610100900460ff16156116785760405162461bcd60e51b8152602060048201526016602482015275141c995cd85b19481a185cdb89dd081cdd185c9d195960521b60448201526064016109d2565b60115460ff166116ca5760405162461bcd60e51b815260206004820152601760248201527f53616c6520697320616c7265616479206f6e676f696e6700000000000000000060448201526064016109d2565b6116d5610700611a93565b61172d5760405162461bcd60e51b815260206004820152602360248201527f596f75277265206e6f7420656c696769626c6520666f72207468652070726573604482015262616c6560e81b60648201526084016109d2565b600e5461173b906001612a50565b81106117595760405162461bcd60e51b81526004016109d290612a97565b60125481611766600c5490565b6117709190612a50565b106117bd5760405162461bcd60e51b815260206004820152601e60248201527f45786365656473206d6178696d756d2070726573616c6520737570706c79000060448201526064016109d2565b6117c8610756611a93565b1561183a57806010546117db9190612ae5565b34146118355760405162461bcd60e51b8152602060048201526024808201527f4f473a20457468657220616d6f756e742073656e74206973206e6f7420636f726044820152631c9958dd60e21b60648201526084016109d2565b611896565b80600f546118489190612ae5565b34146118965760405162461bcd60e51b815260206004820181905260248201527f457468657220616d6f756e742073656e74206973206e6f7420636f727265637460448201526064016109d2565b60135481601960006118a6611a93565b6001600160a01b03166001600160a01b03168152602001908152602001600020546118d19190612a50565b111561191f5760405162461bcd60e51b815260206004820152601f60248201527f4d6178207072656275797320666f72206164647265737320726561636865640060448201526064016109d2565b806019600061151b611a93565b611934611a93565b6001600160a01b031661194f6006546001600160a01b031690565b6001600160a01b0316146119755760405162461bcd60e51b81526004016109d290612983565b6001600160a01b0381166119da5760405162461bcd60e51b815260206004820152602660248201527f4f776e61626c653a206e6577206f776e657220697320746865207a65726f206160448201526564647265737360d01b60648201526084016109d2565b61102b81611dc8565b6119eb611a93565b6001600160a01b0316611a066006546001600160a01b031690565b6001600160a01b031614611a2c5760405162461bcd60e51b81526004016109d290612983565b601355565b80546001019055565b600060143610801590611a575750600b546001600160a01b031633145b15611a69575060131936013560601c90565b503390565b60006001600160e01b0319821663780e9d6360e01b14806108f157506108f1826120be565b6000611a9d611a3a565b905090565b600081815260046020526040902080546001600160a01b0319166001600160a01b0384169081179091558190611ad782610ef2565b6001600160a01b03167f8c5be1e5ebec7d5bd14f71427d1e84f3dd0314c0f7b2291e5b200ac8c7c3b92560405160405180910390a45050565b6000818152600260205260408120546001600160a01b0316611b895760405162461bcd60e51b815260206004820152602c60248201527f4552433732313a206f70657261746f7220717565727920666f72206e6f6e657860448201526b34b9ba32b73a103a37b5b2b760a11b60648201526084016109d2565b6000611b9483610ef2565b9050806001600160a01b0316846001600160a01b03161480611bdb57506001600160a01b0380821660009081526005602090815260408083209388168352929052205460ff165b80611bff5750836001600160a01b0316611bf484610ac1565b6001600160a01b0316145b949350505050565b826001600160a01b0316611c1a82610ef2565b6001600160a01b031614611c7e5760405162461bcd60e51b815260206004820152602560248201527f4552433732313a207472616e736665722066726f6d20696e636f72726563742060448201526437bbb732b960d91b60648201526084016109d2565b6001600160a01b038216611ce05760405162461bcd60e51b8152602060048201526024808201527f4552433732313a207472616e7366657220746f20746865207a65726f206164646044820152637265737360e01b60648201526084016109d2565b611ceb83838361210e565b611cf6600082611aa2565b6001600160a01b0383166000908152600360205260408120805460019290611d1f908490612b04565b90915550506001600160a01b0382166000908152600360205260408120805460019290611d4d908490612a50565b909155505060008181526002602052604080822080546001600160a01b0319166001600160a01b0386811691821790925591518493918716917fddf252ad1be2c89b69c2b068fc378daa952ba7f163c4a11628f55a4df523b3ef91a4505050565b61115d828260405180602001604052806000815250612119565b600680546001600160a01b038381166001600160a01b0319831681179093556040519116919082907f8be0079c531659141344cd1fd0a4f28419497f9722a3daafe3b4186f6b6457e090600090a35050565b61271081611e27600c5490565b611e319190612a50565b10611e775760405162461bcd60e51b815260206004820152601660248201527545786365656473206d6178696d756d20737570706c7960501b60448201526064016109d2565b60005b81811015610c7957611e8f83610fd3600c5490565b611e9d600c80546001019055565b80611ea7816129e4565b915050611e7a565b816001600160a01b0316836001600160a01b03161415611f115760405162461bcd60e51b815260206004820152601960248201527f4552433732313a20617070726f766520746f2063616c6c65720000000000000060448201526064016109d2565b6001600160a01b03838116600081815260056020908152604080832094871680845294825291829020805460ff191686151590811790915591519182527f17307eab39ab6107e8899845ad3d59bd9653f200f220920489ca2b5937696c31910160405180910390a3505050565b611f89848484611c07565b611f958484848461214c565b610abb5760405162461bcd60e51b81526004016109d290612b1b565b60606015805461090690612948565b606081611fe45750506040805180820190915260018152600360fc1b602082015290565b8160005b811561200e5780611ff8816129e4565b91506120079050600a83612b83565b9150611fe8565b60008167ffffffffffffffff8111156120295761202961282c565b6040519080825280601f01601f191660200182016040528015612053576020820181803683370190505b5090505b8415611bff57612068600183612b04565b9150612075600a86612b97565b612080906030612a50565b60f81b818381518110612095576120956129b8565b60200101906001600160f81b031916908160001a9053506120b7600a86612b83565b9450612057565b60006001600160e01b031982166380ac58cd60e01b14806120ef57506001600160e01b03198216635b5e139f60e01b145b806108f157506301ffc9a760e01b6001600160e01b03198316146108f1565b610c79838383612260565b6121238383612318565b612130600084848461214c565b610c795760405162461bcd60e51b81526004016109d290612b1b565b60006001600160a01b0384163b1561225557836001600160a01b031663150b7a02612175611a93565b8786866040518563ffffffff1660e01b81526004016121979493929190612bab565b602060405180830381600087803b1580156121b157600080fd5b505af19250505080156121e1575060408051601f3d908101601f191682019092526121de91810190612be8565b60015b61223b573d80801561220f576040519150601f19603f3d011682016040523d82523d6000602084013e612214565b606091505b5080516122335760405162461bcd60e51b81526004016109d290612b1b565b805181602001fd5b6001600160e01b031916630a85bd0160e11b149050611bff565b506001949350505050565b6001600160a01b0383166122bb576122b681600980546000838152600a60205260408120829055600182018355919091527f6e1540171b6c0c960b71a7020d9f60077f6af931a8bbf590da0223dacf75c7af0155565b6122de565b816001600160a01b0316836001600160a01b0316146122de576122de8382612466565b6001600160a01b0382166122f557610c7981612503565b826001600160a01b0316826001600160a01b031614610c7957610c7982826125b2565b6001600160a01b03821661236e5760405162461bcd60e51b815260206004820181905260248201527f4552433732313a206d696e7420746f20746865207a65726f206164647265737360448201526064016109d2565b6000818152600260205260409020546001600160a01b0316156123d35760405162461bcd60e51b815260206004820152601c60248201527f4552433732313a20746f6b656e20616c7265616479206d696e7465640000000060448201526064016109d2565b6123df6000838361210e565b6001600160a01b0382166000908152600360205260408120805460019290612408908490612a50565b909155505060008181526002602052604080822080546001600160a01b0319166001600160a01b03861690811790915590518392907fddf252ad1be2c89b69c2b068fc378daa952ba7f163c4a11628f55a4df523b3ef908290a45050565b600060016124738461102e565b61247d9190612b04565b6000838152600860205260409020549091508082146124d0576001600160a01b03841660009081526007602090815260408083208584528252808320548484528184208190558352600890915290208190555b5060009182526008602090815260408084208490556001600160a01b039094168352600781528383209183525290812055565b60095460009061251590600190612b04565b6000838152600a60205260408120546009805493945090928490811061253d5761253d6129b8565b90600052602060002001549050806009838154811061255e5761255e6129b8565b6000918252602080832090910192909255828152600a9091526040808220849055858252812055600980548061259657612596612c05565b6001900381819060005260206000200160009055905550505050565b60006125bd8361102e565b6001600160a01b039093166000908152600760209081526040808320868452825280832085905593825260089052919091209190915550565b6001600160e01b03198116811461102b57600080fd5b60006020828403121561261e57600080fd5b813561134a816125f6565b60005b8381101561264457818101518382015260200161262c565b83811115610abb5750506000910152565b6000815180845261266d816020860160208601612629565b601f01601f19169290920160200192915050565b60208152600061134a6020830184612655565b803580151581146126a457600080fd5b919050565b6000806000604084860312156126be57600080fd5b833567ffffffffffffffff808211156126d657600080fd5b818601915086601f8301126126ea57600080fd5b8135818111156126f957600080fd5b8760208260051b850101111561270e57600080fd5b6020928301955093506127249186019050612694565b90509250925092565b60006020828403121561273f57600080fd5b5035919050565b80356001600160a01b03811681146126a457600080fd5b6000806040838503121561277057600080fd5b61277983612746565b946020939093013593505050565b60008060006060848603121561279c57600080fd5b6127a584612746565b92506127b360208501612746565b9150604084013590509250925092565b6000602082840312156127d557600080fd5b61134a82612694565b6000602082840312156127f057600080fd5b61134a82612746565b6000806040838503121561280c57600080fd5b61281583612746565b915061282360208401612694565b90509250929050565b634e487b7160e01b600052604160045260246000fd5b6000806000806080858703121561285857600080fd5b61286185612746565b935061286f60208601612746565b925060408501359150606085013567ffffffffffffffff8082111561289357600080fd5b818701915087601f8301126128a757600080fd5b8135818111156128b9576128b961282c565b604051601f8201601f19908116603f011681019083821181831017156128e1576128e161282c565b816040528281528a60208487010111156128fa57600080fd5b82602086016020830137600060208483010152809550505050505092959194509250565b6000806040838503121561293157600080fd5b61293a83612746565b915061282360208401612746565b600181811c9082168061295c57607f821691505b6020821081141561297d57634e487b7160e01b600052602260045260246000fd5b50919050565b6020808252818101527f4f776e61626c653a2063616c6c6572206973206e6f7420746865206f776e6572604082015260600190565b634e487b7160e01b600052603260045260246000fd5b634e487b7160e01b600052601160045260246000fd5b60006000198214156129f8576129f86129ce565b5060010190565b60208082526031908201527f4552433732313a207472616e736665722063616c6c6572206973206e6f74206f6040820152701ddb995c881b9bdc88185c1c1c9bdd9959607a1b606082015260800190565b60008219821115612a6357612a636129ce565b500190565b60008351612a7a818460208801612629565b835190830190612a8e818360208801612629565b01949350505050565b6020808252602e908201527f416d6f756e7420746f206d696e742065786365656473206d6178696d756d207060408201526d32b9103a3930b739b0b1ba34b7b760911b606082015260800190565b6000816000190483118215151615612aff57612aff6129ce565b500290565b600082821015612b1657612b166129ce565b500390565b60208082526032908201527f4552433732313a207472616e7366657220746f206e6f6e20455243373231526560408201527131b2b4bb32b91034b6b83632b6b2b73a32b960711b606082015260800190565b634e487b7160e01b600052601260045260246000fd5b600082612b9257612b92612b6d565b500490565b600082612ba657612ba6612b6d565b500690565b6001600160a01b0385811682528416602082015260408101839052608060608201819052600090612bde90830184612655565b9695505050505050565b600060208284031215612bfa57600080fd5b815161134a816125f6565b634e487b7160e01b600052603160045260246000fdfea26469706673582212204a6c0bce26949963ae3ccfb6dea8a523ac3326084129e79864d4b68841b9bf5564736f6c63430008090033",
  "immutableReferences": {},
  "source": "// pragma solidity >=0.6.0 <0.7.0;\npragma solidity ^0.8.1;\n//SPDX-License-Identifier: MIT\n \n\nimport \"@openzeppelin/contracts/token/ERC721/ERC721.sol\";\nimport \"@openzeppelin/contracts/utils/Counters.sol\";\nimport \"@openzeppelin/contracts/access/Ownable.sol\";\nimport \"@openzeppelin/contracts/token/ERC721/extensions/ERC721Enumerable.sol\";\nimport \"@opengsn/contracts/src/BaseRelayRecipient.sol\";\n\ncontract YourCollectible is ERC721, Ownable, ERC721Enumerable, BaseRelayRecipient {\n  event Minted(address indexed who, uint tokenId);\n\n  using Counters for Counters.Counter;\n  Counters.Counter private _tokenIds;\n\n  uint256 public maxMint = 5;\n  uint256 public maxPresaleMint = 5;\n  uint256 public price = 5500 * 10**13; //0.055 ETH;\n  uint256 public ogPrice = 4675 * 10**13; //0.04675 ETH;\n  bool public salePaused = true;\n  bool public presalePaused = true;\n  uint public maxTotalPresale = 5000;\n  uint public maxPrebuysPerAddress = 5;\n  uint public maxBuysPerAddress = 20;\n  string private baseUri = \"\";\n\n  uint public constant MAX_ENTRIES = 10000;\n  address promoAddress;\n\n  mapping (address => bool) og;\n  mapping (address => bool) wl;\n  mapping (address => uint256) public prebuysPerAddress;\n  mapping (address => uint256) public buysPerAddress;\n\n  constructor(address _trustedForwarder) ERC721(\"Arcadians\", \"ARC\") {\n    _setTrustedForwarder(_trustedForwarder);\n    _tokenIds.increment();\n    baseUri = \"https://api.arcadians.io/\";\n    promoAddress = 0x1e55C85801a2C4F0beC57c84742a8eF3d72dE57B;\n  }\n\n  function mint(address to) public {\n      require(_tokenIds.current() + 1 < MAX_ENTRIES, \"Exceeds maximum supply\");\n      _safeMint(to, _tokenIds.current());\n      emit Minted(to, _tokenIds.current());\n      _tokenIds.increment();\n  }\n\n  function _msgData() internal view override (BaseRelayRecipient, Context) returns (bytes calldata) {\n    return super._msgData();\n  }\n\n    function _msgSender() internal view override (BaseRelayRecipient, Context) returns (address sender) {\n    return super._msgSender();\n  }\n\n  /**\n    * Allow the owner of the contract to change the trusted\n    * forwarder address, in case any better protocol comes \n    * tomorrow or current one is upgraded.\n    */\n  function setTrustForwarder(address _trustedForwarder) public onlyOwner {\n      _setTrustedForwarder(_trustedForwarder);\n  }\n\n  /**\n    * This version is to keep track of BaseRelayRecipient \n    * we are using in this contract.\n    */\n  function versionRecipient() external pure override returns (string memory) {\n      return \"1\";\n  }\n\n  function _beforeTokenTransfer(address from, address to, uint256 tokenId)\n      internal\n      override(ERC721, ERC721Enumerable)\n  {\n      super._beforeTokenTransfer(from, to, tokenId);\n  }\n\n    /**\n     * @dev Private function for minting. Should not be called outside of buy(), presale() or the constructor\n     * Wraps around _safeMint() to enable batch minting\n     * @param _to recipient of the NFT minted\n     * @param _num number of NFTs minted\n     */\n    function mintBatch(address _to, uint256 _num)\n        private\n    {\n        require(_tokenIds.current() + _num < MAX_ENTRIES, \"Exceeds maximum supply\");\n        for(uint256 i; i < _num; i++){\n          _safeMint( _to, _tokenIds.current());\n          _tokenIds.increment();\n        }\n    }\n\n    function seedPromoToOwner(uint256 _num)\n      public\n      onlyOwner\n    {\n        mintBatch(promoAddress, _num);\n    }\n\n    function seedPromo(address _to, uint256 _num)\n      public\n      onlyOwner\n    {\n        mintBatch(_to, _num);\n    }\n\n\n    /**\n     * @dev Public function for purchasing {num} amount of tokens. Checks for current price. \n     * Calls mintBatch() for minting processs\n     * @param _num number of NFTs minted (Max is 20)\n     */\n    function buy(uint256 _num) \n        public \n        payable \n    {\n        require(!salePaused, \"Sale hasn't started\");\n        require(_num < (maxMint+1),\"Amount to mint exceeds maximum per transaction\");\n\n        require(msg.value == price * _num,\"Ether amount sent is not correct\");\n\n        // buyers can only buy a maximum amount\n        require(buysPerAddress[_msgSender()] + _num <= maxBuysPerAddress,\n                \"Max buys for address reached\");\n  \n        buysPerAddress[_msgSender()] += _num;\n\n        mintBatch(_msgSender(), _num);\n    }    \n\n    /**\n     * @dev Public function for purchasing presale {num} amount of tokens. Requires whitelistEligible()\n     * Calls mintBatch() for minting processs\n     * @param _num number of NFTs minted (Max is 20)\n     */\n    function presale(uint256 _num)\n        public\n        payable\n    {\n        require(!presalePaused, \"Presale hasn't started\");\n        require(salePaused, \"Sale is already ongoing\");\n        require(whitelistEligible(_msgSender()), \"You're not eligible for the presale\");\n        require(_num < (maxPresaleMint+1),\"Amount to mint exceeds maximum per transaction\");\n        require(_tokenIds.current() + _num < maxTotalPresale, \"Exceeds maximum presale supply\");\n\n        // check og status\n        if (ogEligible(_msgSender())) {\n          require(msg.value == ogPrice * _num,\"OG: Ether amount sent is not correct\");\n        }\n\n        else {\n          require(msg.value == price * _num,\"Ether amount sent is not correct\");\n        }\n\n        // prebuyers can only buy a maximum amount\n        require(prebuysPerAddress[_msgSender()] + _num <= maxPrebuysPerAddress,\n                \"Max prebuys for address reached\");\n  \n        prebuysPerAddress[_msgSender()] += _num;\n        mintBatch(_msgSender(), _num);\n    }\n\n    function _baseURI() internal view override returns (string memory) {\n        return baseUri;\n    }\n\n    /**\n     * @dev Function for the owner to start or pause the sale depending on {bool}.\n     */\n    function setSalePauseStatus(bool val)\n        public\n        onlyOwner\n    {\n        salePaused = val;\n    }\n\n    /**\n     * @dev Function for the owner to start or pause the presale depending on {bool}.\n     */\n    function setPresalePauseStatus(bool val)\n        public\n        onlyOwner\n    {\n        presalePaused = val;\n    }  \n\n    /**\n     * @dev Function for the owner to setMaxPresale.\n     */\n    function setMaxPresale(uint val)\n        public\n        onlyOwner\n    {\n        maxTotalPresale = val;\n    }\n\n    /**\n     * @dev Function for the owner to setMaxMint.\n     */\n    function setMaxMint(uint val)\n        public\n        onlyOwner\n    {\n        maxMint = val;\n    }    \n\n    /**\n     * @dev Function for the owner to setMaxPrebuysPerAddress.\n     */\n    function setMaxPrebuysPerAddress(uint val)\n        public\n        onlyOwner\n    {\n        maxPrebuysPerAddress = val;\n    }\n\n    /**\n     * @dev Public function for checking whitelist eligibility.\n     * @param _to verify address is eligible for presale\n     */\n    function whitelistEligible(address _to)\n        public\n        view\n        returns (bool)\n    {\n        return (og[_to] || wl[_to]);\n    }\n\n    /**\n     * @dev Public function for checking OG eligibility.\n     * @param _to verify address is OG\n     */\n    function ogEligible(address _to)\n        public\n        view\n        returns (bool)\n    {\n        return og[_to];\n    }    \n\n    /** @dev Function for withdrawing sale ETH\n    */\n    function withdrawAll()\n        public\n        onlyOwner\n    {\n        require(payable(owner()).send(address(this).balance));\n    }\n\n    function addToPresale(address[] calldata entries, bool isOG)\n        external\n        onlyOwner\n    {\n        for(uint256 i = 0; i < entries.length; i++) {\n            address entry = entries[i];\n            require(entry != address(0), \"NULL_ADDRESS\");\n            if (isOG) {\n                og[entry] = true;\n            }\n            else {\n                wl[entry] = true;\n            }\n        }   \n    }\n\n    function supportsInterface(bytes4 interfaceId) public view override (ERC721, ERC721Enumerable) returns (bool) {\n        return super.supportsInterface(interfaceId);\n    }\n}\n",
  "sourcePath": "/Users/dinizsa/Documents/opgames/moralis-biconomy-metatransactions/Truffle/contracts/YourCollectible.sol",
  "compiler": {
    "name": "solc",
    "version": "0.8.9+commit.e5eed63a.Emscripten.clang"
  },
  "schemaVersion": "3.4.7",
  "updatedAt": "2022-06-24T20:26:19.102Z",
  "networkType": "ethereum",
  "devdoc": {
    "kind": "dev",
    "methods": {
      "approve(address,uint256)": {
        "details": "See {IERC721-approve}."
      },
      "balanceOf(address)": {
        "details": "See {IERC721-balanceOf}."
      },
      "buy(uint256)": {
        "details": "Public function for purchasing {num} amount of tokens. Checks for current price.  Calls mintBatch() for minting processs",
        "params": {
          "_num": "number of NFTs minted (Max is 20)"
        }
      },
      "getApproved(uint256)": {
        "details": "See {IERC721-getApproved}."
      },
      "isApprovedForAll(address,address)": {
        "details": "See {IERC721-isApprovedForAll}."
      },
      "name()": {
        "details": "See {IERC721Metadata-name}."
      },
      "ogEligible(address)": {
        "details": "Public function for checking OG eligibility.",
        "params": {
          "_to": "verify address is OG"
        }
      },
      "owner()": {
        "details": "Returns the address of the current owner."
      },
      "ownerOf(uint256)": {
        "details": "See {IERC721-ownerOf}."
      },
      "presale(uint256)": {
        "details": "Public function for purchasing presale {num} amount of tokens. Requires whitelistEligible() Calls mintBatch() for minting processs",
        "params": {
          "_num": "number of NFTs minted (Max is 20)"
        }
      },
      "renounceOwnership()": {
        "details": "Leaves the contract without owner. It will not be possible to call `onlyOwner` functions anymore. Can only be called by the current owner. NOTE: Renouncing ownership will leave the contract without an owner, thereby removing any functionality that is only available to the owner."
      },
      "safeTransferFrom(address,address,uint256)": {
        "details": "See {IERC721-safeTransferFrom}."
      },
      "safeTransferFrom(address,address,uint256,bytes)": {
        "details": "See {IERC721-safeTransferFrom}."
      },
      "setApprovalForAll(address,bool)": {
        "details": "See {IERC721-setApprovalForAll}."
      },
      "setMaxMint(uint256)": {
        "details": "Function for the owner to setMaxMint."
      },
      "setMaxPrebuysPerAddress(uint256)": {
        "details": "Function for the owner to setMaxPrebuysPerAddress."
      },
      "setMaxPresale(uint256)": {
        "details": "Function for the owner to setMaxPresale."
      },
      "setPresalePauseStatus(bool)": {
        "details": "Function for the owner to start or pause the presale depending on {bool}."
      },
      "setSalePauseStatus(bool)": {
        "details": "Function for the owner to start or pause the sale depending on {bool}."
      },
      "symbol()": {
        "details": "See {IERC721Metadata-symbol}."
      },
      "tokenByIndex(uint256)": {
        "details": "See {IERC721Enumerable-tokenByIndex}."
      },
      "tokenOfOwnerByIndex(address,uint256)": {
        "details": "See {IERC721Enumerable-tokenOfOwnerByIndex}."
      },
      "tokenURI(uint256)": {
        "details": "See {IERC721Metadata-tokenURI}."
      },
      "totalSupply()": {
        "details": "See {IERC721Enumerable-totalSupply}."
      },
      "transferFrom(address,address,uint256)": {
        "details": "See {IERC721-transferFrom}."
      },
      "transferOwnership(address)": {
        "details": "Transfers ownership of the contract to a new account (`newOwner`). Can only be called by the current owner."
      },
      "whitelistEligible(address)": {
        "details": "Public function for checking whitelist eligibility.",
        "params": {
          "_to": "verify address is eligible for presale"
        }
      },
      "withdrawAll()": {
        "details": "Function for withdrawing sale ETH"
      }
    },
    "version": 1
  },
  "userdoc": {
    "kind": "user",
    "methods": {
      "isTrustedForwarder(address)": {
        "notice": "return if the forwarder is trusted to forward relayed transactions to us. the forwarder is required to verify the sender's signature, and verify the call is not a replay."
      },
      "setTrustForwarder(address)": {
        "notice": "Allow the owner of the contract to change the trusted forwarder address, in case any better protocol comes  tomorrow or current one is upgraded."
      },
      "versionRecipient()": {
        "notice": "This version is to keep track of BaseRelayRecipient  we are using in this contract."
      }
    },
    "version": 1
  }
}